{"abi":[{"type":"constructor","inputs":[],"stateMutability":"nonpayable"},{"type":"receive","stateMutability":"payable"},{"type":"function","name":"addAdmin","inputs":[{"name":"admin","type":"address","internalType":"address"}],"outputs":[],"stateMutability":"nonpayable"},{"type":"function","name":"admins","inputs":[{"name":"","type":"address","internalType":"address"}],"outputs":[{"name":"","type":"bool","internalType":"bool"}],"stateMutability":"view"},{"type":"function","name":"burn","inputs":[{"name":"from","type":"address","internalType":"address"},{"name":"amount","type":"uint256","internalType":"uint256"}],"outputs":[{"name":"success","type":"bool","internalType":"bool"}],"stateMutability":"payable"},{"type":"function","name":"getBalance","inputs":[],"outputs":[{"name":"","type":"uint256","internalType":"uint256"}],"stateMutability":"view"},{"type":"function","name":"isAdmin","inputs":[{"name":"account","type":"address","internalType":"address"}],"outputs":[{"name":"","type":"bool","internalType":"bool"}],"stateMutability":"view"},{"type":"function","name":"mint","inputs":[{"name":"recipient","type":"address","internalType":"address"},{"name":"amount","type":"uint256","internalType":"uint256"}],"outputs":[{"name":"success","type":"bool","internalType":"bool"}],"stateMutability":"nonpayable"},{"type":"function","name":"removeAdmin","inputs":[{"name":"admin","type":"address","internalType":"address"}],"outputs":[],"stateMutability":"nonpayable"},{"type":"event","name":"AdminAdded","inputs":[{"name":"admin","type":"address","indexed":true,"internalType":"address"}],"anonymous":false},{"type":"event","name":"AdminRemoved","inputs":[{"name":"admin","type":"address","indexed":true,"internalType":"address"}],"anonymous":false},{"type":"event","name":"Burned","inputs":[{"name":"burner","type":"address","indexed":true,"internalType":"address"},{"name":"amount","type":"uint256","indexed":false,"internalType":"uint256"}],"anonymous":false},{"type":"event","name":"Minted","inputs":[{"name":"recipient","type":"address","indexed":true,"internalType":"address"},{"name":"amount","type":"uint256","indexed":false,"internalType":"uint256"}],"anonymous":false}],"bytecode":{"object":"0x6080604052348015600f57600080fd5b5033600081815260208190526040808220805460ff19166001179055517f44d6d25963f097ad14f29f06854a01f575648a1ef82f30e562ccd3889717e3399190a26106328061005f6000396000f3fe6080604052600436106100745760003560e01c806340c10f191161004e57806340c10f191461010b578063429b62e51461012b578063704802751461015b5780639dc29fac1461017b57600080fd5b806312065fe0146100805780631785f53c146100a057806324d7806c146100c257600080fd5b3661007b57005b600080fd5b34801561008c57600080fd5b506040514781526020015b60405180910390f35b3480156100ac57600080fd5b506100c06100bb3660046105b0565b61018e565b005b3480156100ce57600080fd5b506100fb6100dd3660046105b0565b6001600160a01b031660009081526020819052604090205460ff1690565b6040519015158152602001610097565b34801561011757600080fd5b506100fb6101263660046105d2565b610228565b34801561013757600080fd5b506100fb6101463660046105b0565b60006020819052908152604090205460ff1681565b34801561016757600080fd5b506100c06101763660046105b0565b6103e0565b6100fb6101893660046105d2565b610478565b3360009081526020819052604090205460ff166101df5760405162461bcd60e51b815260206004820152600a60248201526927b7363c9030b236b4b760b11b60448201526064015b60405180910390fd5b6001600160a01b038116600081815260208190526040808220805460ff19169055517fa3b62bc36326052d97ea62d63c3d60308ed4c3ea8ac079dd8499f1e9c4f80c0f9190a250565b3360009081526020819052604081205460ff166102735760405162461bcd60e51b81526020600482015260096024820152682737ba1030b236b4b760b91b60448201526064016101d6565b6001600160a01b0383166102bd5760405162461bcd60e51b8152602060048201526011602482015270125b9d985b1a59081c9958da5c1a595b9d607a1b60448201526064016101d6565b600082116102fe5760405162461bcd60e51b815260206004820152600e60248201526d125b9d985b1a5908185b5bdd5b9d60921b60448201526064016101d6565b6000836001600160a01b03168360405160006040518083038185875af1925050503d806000811461034b576040519150601f19603f3d011682016040523d82523d6000602084013e610350565b606091505b50509050806103935760405162461bcd60e51b815260206004820152600f60248201526e151c985b9cd9995c8819985a5b1959608a1b60448201526064016101d6565b836001600160a01b03167f30385c845b448a36257a6a1716e6ad2e1bc2cbe333cde1e69fe849ad6511adfe846040516103ce91815260200190565b60405180910390a25060019392505050565b3360009081526020819052604090205460ff1661042c5760405162461bcd60e51b815260206004820152600a60248201526927b7363c9030b236b4b760b11b60448201526064016101d6565b6001600160a01b038116600081815260208190526040808220805460ff19166001179055517f44d6d25963f097ad14f29f06854a01f575648a1ef82f30e562ccd3889717e3399190a250565b60008134146104ba5760405162461bcd60e51b815260206004820152600e60248201526d0acc2d8eaca40dad2e6dac2e8c6d60931b60448201526064016101d6565b600082116104fb5760405162461bcd60e51b815260206004820152600e60248201526d125b9d985b1a5908185b5bdd5b9d60921b60448201526064016101d6565b6001600160a01b0383166105485760405162461bcd60e51b8152602060048201526014602482015273496e76616c69642066726f6d206164647265737360601b60448201526064016101d6565b826001600160a01b03167f696de425f79f4a40bc6d2122ca50507f0efbeabbff86a84871b7196ab8ea8df78360405161058391815260200190565b60405180910390a250600192915050565b80356001600160a01b03811681146105ab57600080fd5b919050565b6000602082840312156105c257600080fd5b6105cb82610594565b9392505050565b600080604083850312156105e557600080fd5b6105ee83610594565b94602093909301359350505056fea264697066735822122012c4b15c7dc04b527e71bbc97febf3e5ac519285ba5a7368bad35dda1ff9695f64736f6c634300081b0033","linkReferences":{}},"methodIdentifiers":{"addAdmin(address)":"70480275","admins(address)":"429b62e5","burn(address,uint256)":"9dc29fac","getBalance()":"12065fe0","isAdmin(address)":"24d7806c","mint(address,uint256)":"40c10f19","removeAdmin(address)":"1785f53c"},"id":22}