{"abi":[{"type":"function","name":"deliverMessage","inputs":[{"name":"hypNativeMinter","type":"address","internalType":"address"},{"name":"origin","type":"uint32","internalType":"uint32"},{"name":"sender","type":"bytes32","internalType":"bytes32"},{"name":"message","type":"bytes","internalType":"bytes"}],"outputs":[],"stateMutability":"nonpayable"}],"bytecode":{"object":"0x6080604052348015600f57600080fd5b506102ba8061001f6000396000f3fe608060405234801561001057600080fd5b506004361061002b5760003560e01c80639ed1240a14610030575b600080fd5b61004361003e366004610118565b610045565b005b600080866001600160a01b03168686868660405160240161006994939291906101ce565b60408051601f198184030181529181526020820180516001600160e01b03166356d5d47560e01b1790525161009e9190610235565b6000604051808303816000865af19150503d80600081146100db576040519150601f19603f3d011682016040523d82523d6000602084013e6100e0565b606091505b509150915081819061010e5760405162461bcd60e51b81526004016101059190610251565b60405180910390fd5b5050505050505050565b60008060008060006080868803121561013057600080fd5b85356001600160a01b038116811461014757600080fd5b9450602086013563ffffffff8116811461016057600080fd5b935060408601359250606086013567ffffffffffffffff81111561018357600080fd5b8601601f8101881361019457600080fd5b803567ffffffffffffffff8111156101ab57600080fd5b8860208284010111156101bd57600080fd5b959894975092955050506020019190565b63ffffffff8516815283602082015260606040820152816060820152818360808301376000818301608090810191909152601f909201601f191601019392505050565b60005b8381101561022c578181015183820152602001610214565b50506000910152565b60008251610247818460208701610211565b9190910192915050565b6020815260008251806020840152610270816040850160208701610211565b601f01601f1916919091016040019291505056fea26469706673582212206ab03143dbc4240d48f6579c3cff61312ee82af67ee9ec539bf3db20578d464d64736f6c634300081b0033","linkReferences":{}},"methodIdentifiers":{"deliverMessage(address,uint32,bytes32,bytes)":"9ed1240a"},"id":16}