{"abi":[{"type":"constructor","inputs":[{"name":"_mailbox","type":"address","internalType":"address"},{"name":"_nativeMinter","type":"address","internalType":"address"},{"name":"_scale","type":"uint256","internalType":"uint256"},{"name":"_owner","type":"address","internalType":"address"}],"stateMutability":"nonpayable"},{"type":"receive","stateMutability":"payable"},{"type":"function","name":"balanceOf","inputs":[{"name":"_account","type":"address","internalType":"address"}],"outputs":[{"name":"","type":"uint256","internalType":"uint256"}],"stateMutability":"view"},{"type":"function","name":"canMint","inputs":[],"outputs":[{"name":"","type":"bool","internalType":"bool"}],"stateMutability":"view"},{"type":"function","name":"enrollRemoteRouter","inputs":[{"name":"_domain","type":"uint32","internalType":"uint32"},{"name":"_router","type":"bytes32","internalType":"bytes32"}],"outputs":[],"stateMutability":"nonpayable"},{"type":"function","name":"getRouter","inputs":[{"name":"_domain","type":"uint32","internalType":"uint32"}],"outputs":[{"name":"","type":"bytes32","internalType":"bytes32"}],"stateMutability":"view"},{"type":"function","name":"handle","inputs":[{"name":"_origin","type":"uint32","internalType":"uint32"},{"name":"_sender","type":"bytes32","internalType":"bytes32"},{"name":"_message","type":"bytes","internalType":"bytes"}],"outputs":[],"stateMutability":"nonpayable"},{"type":"function","name":"locked","inputs":[],"outputs":[{"name":"","type":"uint256","internalType":"uint256"}],"stateMutability":"view"},{"type":"function","name":"mailbox","inputs":[],"outputs":[{"name":"","type":"address","internalType":"address"}],"stateMutability":"view"},{"type":"function","name":"nativeMinter","inputs":[],"outputs":[{"name":"","type":"address","internalType":"contract INativeMinter"}],"stateMutability":"view"},{"type":"function","name":"owner","inputs":[],"outputs":[{"name":"","type":"address","internalType":"address"}],"stateMutability":"view"},{"type":"function","name":"routers","inputs":[{"name":"","type":"uint32","internalType":"uint32"}],"outputs":[{"name":"","type":"bytes32","internalType":"bytes32"}],"stateMutability":"view"},{"type":"function","name":"scale","inputs":[],"outputs":[{"name":"","type":"uint256","internalType":"uint256"}],"stateMutability":"view"},{"type":"function","name":"transferRemote","inputs":[{"name":"_destination","type":"uint32","internalType":"uint32"},{"name":"_recipient","type":"bytes32","internalType":"bytes32"},{"name":"_amount","type":"uint256","internalType":"uint256"}],"outputs":[{"name":"messageId","type":"bytes32","internalType":"bytes32"}],"stateMutability":"payable"},{"type":"event","name":"ReceivedMessage","inputs":[{"name":"origin","type":"uint32","indexed":false,"internalType":"uint32"},{"name":"sender","type":"bytes32","indexed":false,"internalType":"bytes32"},{"name":"recipient","type":"address","indexed":false,"internalType":"address"},{"name":"amount","type":"uint256","indexed":false,"internalType":"uint256"}],"anonymous":false},{"type":"event","name":"RemoteRouterEnrolled","inputs":[{"name":"domain","type":"uint32","indexed":false,"internalType":"uint32"},{"name":"router","type":"bytes32","indexed":false,"internalType":"bytes32"}],"anonymous":false},{"type":"event","name":"SentMessage","inputs":[{"name":"destination","type":"uint32","indexed":false,"internalType":"uint32"},{"name":"recipient","type":"bytes32","indexed":false,"internalType":"bytes32"},{"name":"sender","type":"address","indexed":false,"internalType":"address"},{"name":"amount","type":"uint256","indexed":false,"internalType":"uint256"}],"anonymous":false},{"type":"error","name":"AmountExceedsLocked","inputs":[]},{"type":"error","name":"AmountExceedsMsgValue","inputs":[]},{"type":"error","name":"BurnFailed","inputs":[]},{"type":"error","name":"MintFailed","inputs":[]},{"type":"error","name":"NoRouter","inputs":[]},{"type":"error","name":"OnlyMailbox","inputs":[]},{"type":"error","name":"OnlyOwner","inputs":[]},{"type":"error","name":"ReentrancyGuard","inputs":[]},{"type":"error","name":"SendValueFailed","inputs":[]}],"bytecode":{"object":"0x60e060405234801561001057600080fd5b50604051610e5c380380610e5c83398101604081905261002f91610081565b6001600160a01b0393841660805291831660a05260c052600280546001600160a01b0319169190921617905560016003556100ce565b80516001600160a01b038116811461007c57600080fd5b919050565b6000806000806080858703121561009757600080fd5b6100a085610065565b93506100ae60208601610065565b9250604085015191506100c360608601610065565b905092959194509250565b60805160a05160c051610d2f61012d60003960008181610293015281816103e7015261061401526000818160c90152818161042b015281816106c301526109b601526000818161025f015281816102c001526107a90152610d2f6000f3fe6080604052600436106100ab5760003560e01c80638da5cb5b116100645780638da5cb5b146101d3578063b49c53a7146101f3578063beb9716d14610213578063cf30901214610238578063d5438eae1461024d578063f51e181a1461028157600080fd5b8063174eaef7146100b75780632ead72f614610108578063401a2f4b1461014357806356d5d4751461017657806370a082311461019857806381b4e8b4146101c057600080fd5b366100b257005b600080fd5b3480156100c357600080fd5b506100eb7f000000000000000000000000000000000000000000000000000000000000000081565b6040516001600160a01b0390911681526020015b60405180910390f35b34801561011457600080fd5b50610135610123366004610a47565b60016020526000908152604090205481565b6040519081526020016100ff565b34801561014f57600080fd5b5061013561015e366004610a47565b63ffffffff1660009081526001602052604090205490565b34801561018257600080fd5b50610196610191366004610a69565b6102b5565b005b3480156101a457600080fd5b506101356101b3366004610af3565b6001600160a01b03163190565b6101356101ce366004610b1c565b6105a9565b3480156101df57600080fd5b506002546100eb906001600160a01b031681565b3480156101ff57600080fd5b5061019661020e366004610b4f565b61091e565b34801561021f57600080fd5b5061022861099e565b60405190151581526020016100ff565b34801561024457600080fd5b50600054610135565b34801561025957600080fd5b506100eb7f000000000000000000000000000000000000000000000000000000000000000081565b34801561028d57600080fd5b506101357f000000000000000000000000000000000000000000000000000000000000000081565b336001600160a01b037f000000000000000000000000000000000000000000000000000000000000000016146102fe5760405163f723c0bb60e01b815260040160405180910390fd5b600260035403610321576040516345f5ce8b60e11b815260040160405180910390fd5b600260035563ffffffff8416600090815260016020526040902054831461035b5760405163d6b237df60e01b815260040160405180910390fd5b60408110156103aa5760405162461bcd60e51b8152602060048201526016602482015275092dcecc2d8d2c840dacae6e6c2ceca40d8cadccee8d60531b60448201526064015b60405180910390fd5b60006103b96020828486610b79565b6103c291610ba3565b90508060006103d5604060208688610b79565b6103de91610ba3565b9050600061040c7f000000000000000000000000000000000000000000000000000000000000000083610bd8565b6040516340c10f1960e01b8152306004820152602481018290529091507f00000000000000000000000000000000000000000000000000000000000000006001600160a01b0316906340c10f19906044016020604051808303816000875af115801561047c573d6000803e3d6000fd5b505050506040513d601f19601f820116820180604052508101906104a09190610bef565b6104bc5760405162ec6f7b60e31b815260040160405180910390fd5b806000808282546104cd9190610c11565b90915550506040516000906001600160a01b0385169083908381818185875af1925050503d806000811461051d576040519150601f19603f3d011682016040523d82523d6000602084013e610522565b606091505b50509050806105445760405163120086e360e11b815260040160405180910390fd5b6040805163ffffffff8b168152602081018a90526001600160a01b038616818301526060810184905290517fa042999eea1982ceab1be892c2338d9c69a126574b2e637916039bfcc61741759181900360800190a15050600160035550505050505050565b6000813410156105cc57604051630f971d5960e01b815260040160405180910390fd5b63ffffffff84166000908152600160205260409020546105ff5760405163d6b237df60e01b815260040160405180910390fd5b600061060b8334610c24565b905060006106397f000000000000000000000000000000000000000000000000000000000000000085610c37565b9050600081116106845760405162461bcd60e51b815260206004820152601660248201527544657374696e6174696f6e20616d6f756e74203c203160501b60448201526064016103a1565b8360005410156106a7576040516301c02a3b60e21b815260040160405180910390fd5b604051632770a7eb60e21b8152306004820152602481018590527f00000000000000000000000000000000000000000000000000000000000000006001600160a01b031690639dc29fac90869060440160206040518083038185885af1158015610715573d6000803e3d6000fd5b50505050506040513d601f19601f8201168201806040525081019061073a9190610bef565b61075757604051631bc5aabf60e21b815260040160405180910390fd5b836000808282546107689190610c24565b909155505060408051602080820188905281830184905282518083038401815260608301845263ffffffff8a166000908152600190925292812054909182917f00000000000000000000000000000000000000000000000000000000000000006001600160a01b03169187916107e5918d91908890608401610c7d565b60408051601f198184030181529181526020820180516001600160e01b031663fa31de0160e01b1790525161081a9190610cc4565b60006040518083038185875af1925050503d8060008114610857576040519150601f19603f3d011682016040523d82523d6000602084013e61085c565b606091505b5091509150816108ae5760405162461bcd60e51b815260206004820152601760248201527f4d61696c626f78206469737061746368206661696c656400000000000000000060448201526064016103a1565b808060200190518101906108c29190610ce0565b6040805163ffffffff8c168152602081018b90523381830152606081018a905290519197507fafd1aee240e9c8d452c53803fac8daedf343053117e3b9925a6f8071d1061564919081900360800190a150505050509392505050565b6002546001600160a01b0316331461094957604051635fc483c560e01b815260040160405180910390fd5b63ffffffff8216600081815260016020908152604091829020849055815192835282018390527f97fd51fef1f80c854cbd0150c248e8b2ac4ecdc97cc05e742b5f61c9f4dc6458910160405180910390a15050565b604051630935e01b60e21b81523060048201526000907f00000000000000000000000000000000000000000000000000000000000000006001600160a01b0316906324d7806c90602401602060405180830381865afa158015610a05573d6000803e3d6000fd5b505050506040513d601f19601f82011682018060405250810190610a299190610bef565b905090565b803563ffffffff81168114610a4257600080fd5b919050565b600060208284031215610a5957600080fd5b610a6282610a2e565b9392505050565b60008060008060608587031215610a7f57600080fd5b610a8885610a2e565b935060208501359250604085013567ffffffffffffffff811115610aab57600080fd5b8501601f81018713610abc57600080fd5b803567ffffffffffffffff811115610ad357600080fd5b876020828401011115610ae557600080fd5b949793965060200194505050565b600060208284031215610b0557600080fd5b81356001600160a01b0381168114610a6257600080fd5b600080600060608486031215610b3157600080fd5b610b3a84610a2e565b95602085013595506040909401359392505050565b60008060408385031215610b6257600080fd5b610b6b83610a2e565b946020939093013593505050565b60008085851115610b8957600080fd5b83861115610b9657600080fd5b5050820193919092039150565b80356020831015610bbc57600019602084900360031b1b165b92915050565b634e487b7160e01b600052601160045260246000fd5b8082028115828204841417610bbc57610bbc610bc2565b600060208284031215610c0157600080fd5b81518015158114610a6257600080fd5b80820180821115610bbc57610bbc610bc2565b81810381811115610bbc57610bbc610bc2565b600082610c5457634e487b7160e01b600052601260045260246000fd5b500490565b60005b83811015610c74578181015183820152602001610c5c565b50506000910152565b63ffffffff841681528260208201526060604082015260008251806060840152610cae816080850160208701610c59565b601f01601f191691909101608001949350505050565b60008251610cd6818460208701610c59565b9190910192915050565b600060208284031215610cf257600080fd5b505191905056fea2646970667358221220607ab531185c47d647e68b8c7f8608bc8267c373b57981c5fa0996fe4b68ebed64736f6c634300081b0033","linkReferences":{}},"methodIdentifiers":{"balanceOf(address)":"70a08231","canMint()":"beb9716d","enrollRemoteRouter(uint32,bytes32)":"b49c53a7","getRouter(uint32)":"401a2f4b","handle(uint32,bytes32,bytes)":"56d5d475","locked()":"cf309012","mailbox()":"d5438eae","nativeMinter()":"174eaef7","owner()":"8da5cb5b","routers(uint32)":"2ead72f6","scale()":"f51e181a","transferRemote(uint32,bytes32,uint256)":"81b4e8b4"},"id":19}