{"abi":[{"type":"function","name":"dispatch","inputs":[{"name":"destination","type":"uint32","internalType":"uint32"},{"name":"recipient","type":"bytes32","internalType":"bytes32"},{"name":"messageBody","type":"bytes","internalType":"bytes"}],"outputs":[{"name":"messageId","type":"bytes32","internalType":"bytes32"}],"stateMutability":"nonpayable"},{"type":"function","name":"nonce","inputs":[],"outputs":[{"name":"","type":"uint256","internalType":"uint256"}],"stateMutability":"view"},{"type":"function","name":"processMessage","inputs":[{"name":"origin","type":"uint32","internalType":"uint32"},{"name":"sender","type":"bytes32","internalType":"bytes32"},{"name":"recipient","type":"address","internalType":"address"},{"name":"messageBody","type":"bytes","internalType":"bytes"}],"outputs":[],"stateMutability":"nonpayable"},{"type":"event","name":"Dispatch","inputs":[{"name":"sender","type":"address","indexed":true,"internalType":"address"},{"name":"destination","type":"uint32","indexed":true,"internalType":"uint32"},{"name":"recipient","type":"bytes32","indexed":true,"internalType":"bytes32"},{"name":"message","type":"bytes","indexed":false,"internalType":"bytes"}],"anonymous":false},{"type":"event","name":"Process","inputs":[{"name":"origin","type":"uint32","indexed":true,"internalType":"uint32"},{"name":"sender","type":"bytes32","indexed":true,"internalType":"bytes32"},{"name":"recipient","type":"address","indexed":true,"internalType":"address"}],"anonymous":false}],"bytecode":{"object":"0x6080604052348015600f57600080fd5b506104dd8061001f6000396000f3fe608060405234801561001057600080fd5b50600436106100415760003560e01c8063aeabc90314610046578063affed0e01461005b578063fa31de0114610076575b600080fd5b6100596100543660046102b8565b610089565b005b61006460005481565b60405190815260200160405180910390f35b610064610084366004610335565b6101be565b826001600160a01b0316848663ffffffff167f0d381c2a574ae8f04e213db7cfb4df8df712cdbd427d9868ffef380660ca657460405160405180910390a46000836001600160a01b0316868685856040516024016100ea94939291906103b8565b60408051601f198184030181529181526020820180516001600160e01b03166356d5d47560e01b1790525161011f91906103e8565b6000604051808303816000865af19150503d806000811461015c576040519150601f19603f3d011682016040523d82523d6000602084013e610161565b606091505b50509050806101b65760405162461bcd60e51b815260206004820152601960248201527f4d6573736167652070726f63657373696e67206661696c656400000000000000604482015260640160405180910390fd5b505050505050565b6000805481806101cd83610417565b9190505533868686866040516020016101eb9695949392919061043e565b604051602081830303815290604052805190602001209050838563ffffffff16336001600160a01b03167f769f711d20c679153d382254f59892613b58a97cc876b249134ac25c80f9c814868660405161024692919061048b565b60405180910390a4949350505050565b803563ffffffff8116811461026a57600080fd5b919050565b60008083601f84011261028157600080fd5b50813567ffffffffffffffff81111561029957600080fd5b6020830191508360208285010111156102b157600080fd5b9250929050565b6000806000806000608086880312156102d057600080fd5b6102d986610256565b94506020860135935060408601356001600160a01b03811681146102fc57600080fd5b9250606086013567ffffffffffffffff81111561031857600080fd5b6103248882890161026f565b969995985093965092949392505050565b6000806000806060858703121561034b57600080fd5b61035485610256565b935060208501359250604085013567ffffffffffffffff81111561037757600080fd5b6103838782880161026f565b95989497509550505050565b81835281816020850137506000828201602090810191909152601f909101601f19169091010190565b63ffffffff851681528360208201526060604082015260006103de60608301848661038f565b9695505050505050565b6000825160005b8181101561040957602081860181015185830152016103ef565b506000920191825250919050565b60006001820161043757634e487b7160e01b600052601160045260246000fd5b5060010190565b8681526bffffffffffffffffffffffff198660601b16602082015263ffffffff60e01b8560e01b166034820152836038820152818360588301376000910160580190815295945050505050565b60208152600061049f60208301848661038f565b94935050505056fea264697066735822122067c7fd73044aa45f5ee0d6bbc837eaf629f3bf84f6ae7b825b4eb3f561c2c44d64736f6c634300081b0033","linkReferences":{}},"methodIdentifiers":{"dispatch(uint32,bytes32,bytes)":"fa31de01","nonce()":"affed0e0","processMessage(uint32,bytes32,address,bytes)":"aeabc903"},"id":25}